:020000040800F2
:10000000F807002001010008DF2B0008492600083E
:10001000DD2B000811090008B72F000800000000C0
:10002000000000000000000000000000192D000882
:100030002109000800000000E12B00081B2D00082A
:100040001B0100081B0100081B0100081B01000820
:100050001B0100081B0100081B0100082309000800
:10006000290900081B0100081B01000815090008E8
:100070001B0100081B0100081B0100081B010008F0
:100080001B0100081B010008310800081B010008C3
:100090001B0100081B0100081B0100081B010008D0
:1000A0001B0100081B0100081B0100081B010008C0
:1000B0001B0100081B0100081B0100081B010008B0
:1000C0001B0100081B0100081B0100081B010008A0
:1000D0001B0100081B0100081B0100081B01000890
:1000E0001B0100081B0100081B010008DFF80CD0F1
:1000F00000F010FB00480047953A0008F807002080
:100100000648804706480047FEE7FEE7FEE7FEE7B1
:10011000FEE7FEE7FEE7FEE7FEE7FEE77F2D0008CD
:10012000ED000008202A04DB203A21FA02F0002129
:10013000704721FA02F3D040C2F1200291400843F7
:1001400019467047D2B201E000F8012B491EFBD2DC
:1001500070470022F6E710B513460A4604461946D2
:10016000FFF7F0FF204610BDF0B480EA0102D40F83
:100170004200B2EB410F02D20246084611464A0045
:1001800042D0C30DDDB2C1F3C752AD1A202D35DA0E
:10019000C1F3160141F4000204B15242C5F1200638
:1001A00002FA06F12A411044B3EBD05F23D0C4B168
:1001B000012DA0EBC35009DCF0BC4FF0004202EA75
:1001C000C352DBB200F5000000F0C2B8400000F1FD
:1001D000807000EBC350A0F1807040EAD1704900FC
:1001E00009E0490841EAC071A0EBC35000F50000E6
:1001F000400800EBC350F0BC00F0A1B861420122FE
:1002000002EB4101001BF6E7F0BC704781F00041B2
:10021000AAE780F00040A7E7420005D0C0F3C7522C
:100220005242914201DC0020704700EBC150704700
:1002300096230022114600F08BB820F00040C10D3B
:10024000C0F3160040F400007F2901DA0020704757
:10025000962903DCC1F19601C84070479639884061
:10026000704700F0004230F000400AD0C10D01F5A7
:100270006071C0F3160042EA0151C2084007114301
:100280007047002001467047002801DBC0F10040A4
:10029000002901DBC1F1004181427047002801DBE8
:1002A000C0F10040002901DBC1F1004188427047E4
:1002B00030B50B46014600202022012409E021FA36
:1002C00002F59D4205D303FA02F5491B04FA02F533
:1002D0002844151EA2F10102F1DC30BD2DE9F05FCA
:1002E0000546002092469B468846064681464024A5
:1002F0001BE02846414647462246FFF713FF534678
:100300005A46C01A914110D311461846224600F0B1
:1003100013FA2D1A67EB01084F46224601200021EF
:1003200000F00AFA17EB00094E41201EA4F1010467
:10033000DFDC484631462A464346BDE8F09F0029A7
:10034000A8BF7047401C490008BF20F0010070475B
:1003500010B4B0FA80FC00FA0CF050EA010404BFBB
:1003600010BC704749B1CCF1200421FA04F411FA11
:100370000CF118BF012121430843A3EB0C01CB1D55
:100380004FEA00614FEA102042BF002010BC7047C6
:1003900000EBC35010440029A4BF10BC7047401CA0
:1003A000490008BF20F0010010BC70472DE9FE4F46
:1003B000804681EA0300C00F0C46009021F0004106
:1003C00023F00045B8EB0200A94105D24046214682
:1003D00090461C460B46024623F00040104347D08F
:1003E000270DC7F30A00C3F30A510290401A019087
:1003F00040286BDAC3F3130040F4801B0098924648
:1004000020B10023D2EB030A63EB0B0B0198594692
:10041000C0F14002504600F08FF906460D465046A6
:100420005946019A00F097F910EB08006141002449
:1004300087EA115284EAE7731A4340D0009A62B304
:10044000019A012A4FEA075215DC001B61EB0201F9
:100450004FF0004202EA0752CDE90042001C41F58C
:10046000801132462B4600F095F903B0BDE8F08FBD
:1004700040462146F9E7001B61EB0201001C41F5F3
:10048000801300185B412018A2F5001747EB030109
:1004900040EAD570B6196D4111E06D084FEA360695
:1004A00045EAC0754FEA0752001B61EB0201001CD0
:1004B00041F5801149084FEA300000195141324698
:1004C0002B4603B0BDE8F04F00F057B90098012269
:1004D00040000023D0EB020263EBE073009821465A
:1004E0004FEAE074B8EB000061EB0401E9E783F048
:1004F00000435BE781F0004158E72DE9FE4F81EAB8
:10050000030404F0004421F0004100944FF0000B7C
:1005100023F0004350EA01045ED052EA03045BD0AA
:10052000C3F30A54C1F30A552C44A4F2F3340194E2
:10053000A0FB0254C1F3130141F48011C3F3130370
:1005400043F4801301FB024400FB034E840A970A24
:1005500044EA815447EA8357A4FB076802958D0A51
:1005600005FB07854FEA932C04FB0C542705029DDD
:100570004FEA065847EA1637B5EB08056EEB070C4D
:10058000870E920E47EA811742EA8312A7FB020107
:10059000B6EB0B0164EB00042B0D43EA0C335E1841
:1005A00044EB1C50DA465146E7FB0201C5F3130445
:1005B0004FEA0B3343EA14534FEA0432019C43EAF7
:1005C0000603A4F10C040294009CCDE900B400F0F1
:1005D000E1F803B0BDE8F08F00200146F9E72DE90E
:1005E000F04D81EA030404F0004B21F0004514466D
:1005F0004FF0000A23F0004150EA050220D054EAEF
:1006000001021DD0C5F30A570246C5F31303C1F317
:100610001300C1F30A5640F4801543F48013A7EB8E
:100620000608101BD64608F2FD3873EB050002D30E
:1006300008F1010801E092185B41B8F1000F03DAFC
:1006400000200146BDE8F08D00204FF480110646E1
:1006500084460EE0171B73EB050705D3121B63EBF3
:10066000050306434CEA010C49084FEA3000921892
:100670005B4150EA0107EDD152EA030012D082EA51
:10068000040083EA0501084305D0101BAB4106D2E4
:100690000122002306E000224FF0004302E06FF049
:1006A000010253101AEB06004CEB085110EB0A0044
:1006B00041EB0B01BDE8F04D00F05FB8C1F30A5209
:1006C000C1F3130140F2FF3341F480119A4202DA80
:1006D00000200146704740F233439A42A2F233426F
:1006E00002DC5242FFF71EBD00F026B830B50029EB
:1006F00004DB4FF00044404264EB0101002B04DBBB
:100700004FF00044524264EB0303994208BF904209
:1007100030BD0000064C074D06E0E06840F00103E4
:1007200094E8070098471034AC42F6D3FFF7E2FC98
:100730004046000860460008202A04DB203A00FA00
:1007400002F1002070479140C2F1200320FA03F328
:10075000194390407047202A06DBCB17203A41FA14
:1007600002F043EAE07306E041FA02F3D040C2F13E
:100770002002914008431946704710B5002B08DA53
:10078000401C41F1000192185B411A4301D120F055
:10079000010010BD2DE9F04D92469B4611B1B1FA12
:1007A00081F202E0B0FA80F220329046FFF7C4FFF7
:1007B00004460F4640EA0A0041EA0B0153465A46F6
:1007C000084313D0114653EA010019D0C8F1400282
:1007D0005046FFF7A7FC05460E465046594642468E
:1007E000FFF7AAFF084305D0012004E02046394660
:1007F000BDE8F08D0020054346EAE0762C43374300
:100800000A986305E40AA0EB08000022FD0A44EA06
:1008100047540A3002D500200146E9E701051019C6
:100820006941DDE9084500196941BDE8F04DA4E7DB
:10083000014800F0C4B900004800002070B504462B
:1008400000688168C943C90717D1816821F0010197
:10085000816000F091FD05460AE000BF00F08CFDCC
:10086000401B022804D920688068C043C00706D016
:1008700020688068C043C007F0D0002070BDA06A27
:1008800040F01000A062E06A40F00100E062012048
:1008900070BD0000F8B50026044600960068816827
:1008A000C943C9072DD0816841F001018160164814
:1008B00016490068B0FBF1F000E0401E00900028EF
:1008C000FBD100F059FD054616E000BF00F054FDD5
:1008D000401B022810D920688068C043C0070BD095
:1008E000A06A40F01000A062E06A40F00100E062FF
:1008F00084F824600120F8BD20688068C043C007E8
:10090000E4D10020F8BD00002C00002040420F0080
:10091000FEE70000014800F009BB0000B401002020
:100920007047022000F022BC042000F01FBC70477A
:100930000C49CA68D207FCD10A6942F002020A6176
:100940004861086940F040000861C868C007FCD1F0
:10095000086920F001000861086920F002000861C0
:1009600070470000002002402DE9F05F4FF0E029C1
:100970008B46D9F810101446054621F00201C9F83B
:100980001010DFF85480DFF854A098F80070DAF8FF
:10099000006000F0BFFB0020014603E025F81010C6
:1009A000401C80B2A042F9D3002005E03BF81010B3
:1009B00025F81010401C80B2A042F7D300F0A0FB35
:1009C00088F80070CAF80060D9F8101041F00201F0
:1009D000C9F81010BDE8F09F20000020280000207A
:1009E0004FF0E0210A6922F002020A61044B1A6802
:1009F00000681A600A6942F002020A61704700004A
:100A00002800002070B515460C46064600F082FB13
:100A10002046FFF78DFF0E4B186940F0010018616A
:100A2000002008E0D968C907FCD136F8101024F876
:100A30001010401C80B2A842F4D3D868C007FCD183
:100A4000186920F001001861BDE8704000F058BB43
:100A50000020024070B50C46054600F05BFB2046C6
:100A6000FFF766FF0B4A106940F001001061D06883
:100A7000C007FCD12580D068C007FCD16080D06859
:100A8000C007FCD1106920F001001061BDE8704082
:100A900000F036BB0020024070470000F8B500248B
:100AA000009490F824202546012A12D0012280F8D3
:100AB00024204A681F23072A0DD20668776B521E2E
:100AC00002EB820293409F430B6893401F4377637E
:100AD00019E00220F8BD06680D2A0AD2376BD21F32
:100AE00002EB820293409F430B6893401F4337639E
:100AF00009E0F76A0D3A02EB820293409F430B68CC
:100B000093401F43F7620A68072306680A2A0AD33C
:100B1000F7680A3A02EB420293409F438B68934086
:100B20001F43F76008E0376902EB420293409F439E
:100B30008B6893401F4337610A68102A01D0112A3D
:100B400020D1124B02689A4217D193681B0219D424
:100B5000936843F4000393600968102912D10C498B
:100B60000C4A0968B1FBF2F101EB8101490000E098
:100B7000491E00910029FBD104E0816A41F0200167
:100B80008162012480F824502046F8BD00240140F1
:100B90002C00002040420F0010B5054A0168126881
:100BA000914203D100F008F80249488210BD0000CC
:100BB00048000020000000200068C06C704710B59D
:100BC000044600684168890626D50168890723D54F
:100BD000A16AC90603D4A16A41F40071A1628168C7
:100BE000C1F34241072910D1217B71B9416821F03D
:100BF00020014160A06A20F48070A062A06AC00455
:100C000003D4A06A40F00100A0622046FFF7C4FFB1
:100C100021686FF0120008602068416809062ED52F
:100C2000016849072BD5A16AC90603D4A16A41F41A
:100C30000051A1628168C1F30231072909D04168DE
:100C4000490515D48168C1F34241072910D1217BA0
:100C500071B9416821F080014160A06A20F48050A0
:100C6000A062A06AC00503D4A06A40F00100A0629F
:100C70002046FFF711FF21686FF00C000860206824
:100C8000416849060DD50068C0070AD0A06A40F443
:100C90008030A062204600F093F821686FF00100D8
:100CA000086010BD2DE9F0414FF0000704003D46FB
:100CB0007ED0A06A002628B9E66284F82460204627
:100CC00000F080F82046FFF7B9FDA16A01F010019D
:100CD000014304D0A06A40F01000A06268E0A16A5D
:100CE00021F4885141F00201A1626268E169237B2D
:100CF0000A4347EA43010A43A1684FF48077B942A7
:100D000008D0012906D0002194F814C0BCF1010FCD
:100D100002D00AE03946F7E7F3B1A36A43F02003B3
:100D2000A362E36A43F00103E3622368D3F804C0DB
:100D30002CF4694C4CEA010CC3F804C02368996890
:100D4000DFF870C001EA0C0111439960A168B94253
:100D50000BD0012909D00CE0DFF85CC0A3690CEBD3
:100D600043330B4343F40061DFE7218A0D05A5F50A
:100D700080152168CB6A23F470032B43CB62216872
:100D800089680E4B1940914208D1E662A16A21F0B0
:100D9000020141F00101A162BDE8F081A06A20F0EA
:100DA000020040F01000A062E06A40F00100E06242
:100DB0000120F1E7FDF7E1FF00E0FFFFFE0E1FFF5E
:100DC0007047000070B586B0002506460095019575
:100DD0000295039500681D49884235D11C498869F0
:100DE00040F400708861886900F40070049088699C
:100DF00040F0040088618869694600F004000490AE
:100E00000820009003200190124800F0BBF9134C19
:100E10001148C4E900058020C4E902504000206167
:100E20008000C4E905052046E56100F029F908B114
:100E3000FFF77DFD3462002211461220666200F049
:100E400089FC122000F078FC06B070BD002401403F
:100E5000001002400008014008000240B4010020D8
:100E600070B5044690F8240001280DD0012084F8C4
:100E700024002046FFF70EFD02004FF0000005D0D1
:100E800084F82400104670BD022070BDA16A40F6AF
:100E90000163994341F48071A162224D2368224984
:100EA000AB4218D10E6816F4702F14D0A66A46F41F
:100EB0008016A6620E68760505D5A66A26F4005649
:100EC00046F48056A662A66AF6040AD5E66A26F0BB
:100ED0000606E66206E0A66A26F48016A6625E684A
:100EE000E9E7E06284F824006FF0020018602068EF
:100EF000436843F02003436020688368C3F34243A0
:100F0000072B05D1A84208D1096811F4702F04D02D
:100F1000816841F480118160B4E7816841F4A001E7
:100F2000F9E7000000280140042401402DE9F05FAA
:100F3000C16B0C6801680B68D0F840C0042202FA4B
:100F40000CF2494DDFF824A1494E4A4FDFF828B191
:100F5000DFF828E122422CD05A072AD50A689206E7
:100F600003D40A6822F004020A600168A94201D190
:100F7000042219E0514501D1402215E0B14202D1CD
:100F80004FF4806210E0B94202D14FF480420BE08E
:100F9000594502D14FF4802206E0714502D14FF449
:100FA000800201E04FF080622F4908394A60C16A2F
:100FB0003BE04FF0020808FA0CF818EA040F4FF073
:100FC00000094FF0010235D05FEA837832D50B6813
:100FD0009B0605D40B6823F00A030B6080F82120E0
:100FE0000168A94201D1022219E0514501D1202214
:100FF00015E0B14202D14FF4007210E0B94202D1C3
:101000004FF400520BE0594502D14FF4003206E094
:10101000714502D14FF4001201E04FF00072124905
:1010200008394A6080F82090816A00291AD0BDE80A
:10103000F05F0847082505FA0CF5254212D01B077A
:1010400010D50B6823F00E030B6090F84010C36BB3
:1010500002FA01F15960826380F8212080F8209023
:10106000016BE2E7BDE8F09F080002401C0002406F
:101070003000024044000240580002406C00024030
:1010800030B528B308C8134914221944B1FBF2F152
:101090008900C16310498163022141771A6843F6D0
:1010A000F0718A43D0E900142143D0E902452C4372
:1010B0002143046921434469214384692143114345
:1010C000196000214163012242770177084630BD53
:1010D000012030BDF8FFFDBF0000024070B504469E
:1010E00000F04AF90546601C02D004480078044428
:1010F00000F042F9401BA042FAD370BD200000204E
:101100000348016941F0800101610020704700003F
:1011100000200240064900200A69120607D5054A48
:101120004A60054A4A600969090600D501207047EE
:101130000020024023016745AB89EFCD0A49022810
:1011400008D0042805D100208881888848B1002073
:1011500088807047087810B100200870704701201F
:10116000FBE70120F4E7000000000020044910B56F
:101170000A68024202D00860FFF7E0FF10BD0000DD
:10118000140401402DE9F84FDFF8B891002409F16B
:10119000040A0AF1040B23460F270BF1040EC9E0E1
:1011A0000125A5402A40AA427DD1674ED1F804C04E
:1011B000ACEB0608B44532D014DCBCF1030F3AD0D6
:1011C00009DCBCF1000F2AD0BCF1010F1CD0BCF12E
:1011D000020F31D11DE0BCF1110F17D0BCF1120F7D
:1011E0002AD119E0B8F5881F19D006DCB8F5803F80
:1011F00015D0B8F5801F1FD111E0B8F5001F0ED033
:10120000B8F5041F18D10AE0CB6815E0CB681B1DA8
:1012100012E0CB6808330FE0CB680C330CE08B682E
:101220002BB1012B4FF0080303D0456104E00423E8
:1012300002E0056100E00023FF2A01D8064601E034
:1012400000F104064FEA840501D9A5F12005D6F87E
:10125000008007FA05FC28EA0C0803FA05F548EABD
:101260000508C6F800804D68ED0062D5374DAE69BF
:1012700046F00106AE61AD6924F0030605F00105F4
:101280000095334D06EB050CDCF80850A607360F29
:1012900007FA06F825EA0805DFF8B880404503D1CB
:1012A0004FF0000817E044E0DFF8AC80404502D181
:1012B0004FF001080FE0DFF8A480404502D14FF065
:1012C000020808E0DFF89880404502D14FF003089B
:1012D00001E04FF0040808FA06F848EA0508CCF8DF
:1012E00008804D68D9F80060ED034D4601D51643DE
:1012F00000E096432E604D68DAF80060AD03554675
:1013000001D5164300E096432E604D68DBF800607F
:10131000ED025D4601D5164300E096432E604D6810
:10132000DEF80060AD02754601D5164300E0964335
:101330002E60641C0D682A46E5407FF431AFBDE89D
:10134000F88F00000004014000001110001002405E
:101350000000014000080140000C01400010014065
:10136000001401408068084000D0012070470AB195
:10137000016170470904FBE701488068704700007D
:101380002000002070B5040025D094F83D00002511
:1013900020B984F83C50204600F048F9242084F815
:1013A0003D002068016821F00101016020680168AA
:1013B00041F4004101602068016821F400410160AE
:1013C00000F006FB4A4A6168914201D8494900E0B1
:1013D0004949884201D2012070BD48492368B0FBC9
:1013E000F1F15E6826F03F060E435E60636893424B
:1013F00006D94FF4967359434FF47A73B1FBF3F166
:101400002368491C1E6A26F03F0631431962616851
:1014100091420AD84900401EB0FBF1F0401CC0F3D5
:101420000B0004281ED204201CE0A368F3B301EBD8
:10143000C10202EB0116421EB2FBF6F2521C42F44C
:101440008042120549D093B301EBC10202EB0111B6
:10145000401EB0FBF1F0401CC0F30B0040F4804094
:1014600040F400402168CA694CF6FF739A43104368
:10147000C861D4E9071001432068026822F0C00265
:1014800011430160D4E9030101432068826848F2F6
:10149000FF339A4311438160D4E905010843216871
:1014A000CA6822F0FF021043C86001E00EE016E0B7
:1014B0002068016841F0010101602564202084F862
:1014C0003D00256384F83E50002070BD01EB4106CD
:1014D000421EB2FBF6F2521CB3E70120C2E701EB59
:1014E0004101401EB0FBF1F0401CC0F30B00B7E718
:1014F000A086010080841E0000093D0040420F00CC
:101500002DE9F84F1F4690468A460446DDF828909C
:10151000FFF732FF054694F83D0020287FD11923BC
:10152000012240492046009501F01AF9002876D1A1
:1015300094F83C00012872D0012084F83C00206817
:101540000168C90703D1016841F001010160206809
:10155000016821F400610160212084F83D00102021
:1015600084F83E0000262664C4F824806785608DD8
:1015700020852D48E0622B464A465146204601F020
:101580007BF890B9206841698069009036E02A466E
:101590004946204601F063F950B1206C042804D17B
:1015A0002068016841F4007101600120BDE8F88FF6
:1015B000606A216800780861606A401C6062618D21
:1015C000491E6185218D491E89B221852268536992
:1015D000DB435B070BD451B100781061606A401C9B
:1015E0006062608D401E6085208D401E20852A46E9
:1015F0004946204601F08EF80028CED1208D0028E3
:10160000C5D154F83D0B016841F400710160202000
:1016100004F81E09E67766770020C7E7FFE7022097
:10162000C4E70000020010000000FFFF10B586B004
:101630000021009101910291039100680F498842B5
:101640001AD10F4CA06940F00800A061A06969465A
:1016500000F008000490C0200090122001900320A8
:1016600003900848FFF78EFDE06940F40010E06148
:10167000E06900F40010049006B010BD0054004072
:1016800000100240000C01400248816802781144B9
:101690008160704720000020074810B5016841F0C4
:1016A00010010160032000F075F8002000F006F83A
:1016B00000F024F8002010BD0020024070B50D4D50
:1016C00004464FF47A712878B1FBF0F00A490968B2
:1016D000B1FBF0F000F08AFD48B9102C07D20022CF
:1016E0002146501E00F036F800206C6070BD0120CD
:1016F00070BD0000200000202C0000200C4808B520
:10170000816941F001018161816901F0010100916C
:10171000C16941F08051C161C06900F08050009002
:101720000448416821F0E06141F00071416008BD6A
:101730000010024000000140002809DB00F01F02F9
:10174000012191404009800000F1E020C0F8001123
:1017500070470000F0B40E4B1B680C46C3F3022325
:10176000C3F10705042D00D90425191D072901D24D
:10177000002300E0DB1E012606FA05F1491E214088
:1017800099409E40761E16403143F0BC01F028BCC3
:101790000CED00E0064900F0070208684FF6FF0371
:1017A000184040EA0220034A1043086070470000D6
:1017B0000CED00E00000FA052DE9F843054600783D
:1017C000354CC00754D0E0690026C00008D4E06959
:1017D00040F08050E061E069012600F08050009008
:1017E0002E480168C90512D40168804641F4807111
:1017F0000160FFF7C1FD074605E000BFFFF7BCFD34
:10180000C01B642823D8D8F80000C005F6D5206A8C
:1018100010F4407021D0A98801F4407181421CD09D
:10182000206A1F49012220F440700A6000220A60E9
:101830002062C00711D0FFF79FFD074641F28838AC
:1018400008E000BFFFF798FDC11B414502D9032006
:10185000BDE8F883206A8007F4D5206A696820F41F
:101860004070084320621EB1E06920F08050E061C2
:101870002878800705D56068A96820F440400843AF
:1018800060602878C00605D56068E96820F48000AB
:10189000084360600020DBE7001002400070004059
:1018A000400442422DE9F0470F46050061D0434E07
:1018B000306800F00700B84209D2306820F0070015
:1018C00038433060306800F00700B84251D12868D2
:1018D0003B4C810712D5400703D5606840F4E060B7
:1018E00060602878000703D5606840F4605060604D
:1018F0006068A96820F0F000084360602878C0079D
:1019000028D06868012810D02168022810D08907E3
:1019100000292EDA616821F0030101436160FFF7BD
:101920002BFD804641F288390DE021688903EFE7FD
:101930008901EDE7FFF720FDA0EB0801494502D939
:101940000320BDE8F0876068696800F00C00B0EB28
:10195000810FEFD1306800F00700B8420BD9306832
:1019600020F0070038433060306800F00700B842CC
:1019700001D00120E5E72878400705D56068E968CF
:1019800020F4E060084360602878000706D56068AE
:10199000296920F4605040EAC100606000F028F836
:1019A0006168084AC1F30311515CC84006490860E8
:1019B00006480068FFF782FE0020C2E700200240D0
:1019C00000100240284600082C00002024000020BF
:1019D0000448054900684968044AC1F30221515C82
:1019E000C84070472C000020001002403846000814
:1019F00012A185B00FC98DE80F0014A0144A006829
:101A000004905168134801F00C03042B10D0082BEC
:101A10000ED1C1F38343C9031DF803000AD55168F1
:101A200004AAC1F34041515C0A4A5043B0FBF1F0B3
:101A300005B0704708494843FAE70000020304056F
:101A4000060708090A0B0C0D0E0F1010010200000A
:101A50000010024000127A0000093D002DE9F84F05
:101A6000040070D02078C04DC00749D06868C0F32A
:101A70008100012807D06868C0F38100022809D1DD
:101A80006868C00306D52868800339D560680028D7
:101A9000E7D035E06068B0F5803F0BD010B1B0F50D
:101AA000A02F11D0286820F480302860286820F406
:101AB000802002E0286840F480302860606890B19F
:101AC000FFF75AFC06460AE0286840F480202860A8
:101AD000F0E700BFFFF750FC801B642873D828682C
:101AE0008003F7D50CE0FFF747FC064605E000BF92
:101AF000FFF742FC801B6428F0D828688003F7D4E5
:101B000020789A4E80074FF001094FF0000839D530
:101B1000686810F00C0F07D06868C0F381000228D5
:101B200009D16868C00306D42868800714D52069E5
:101B3000012808D110E02069B0B1C6F80090FFF785
:101B40001BFC074605E00AE1FFF716FCC01B022854
:101B5000C4D828688007F7D52868616920F0F800A4
:101B600040EAC10028600DE0C6F80080FFF704FCE1
:101B7000074604E0FFF700FCC01B022823D82868B2
:101B80008007F7D4207800072CD57948A169D9B10E
:101B9000C0F80090FFF7F0FB074604E0FFF7ECFB0E
:101BA000C01B02280FD8686A8007F7D571484FF428
:101BB000FA510068B0FBF1F0009000BF0098411EA0
:101BC0000091FAD20EE080E0C0F80080FFF7D4FB6D
:101BD000074604E0FFF7D0FBC01B022875D8686AEF
:101BE0008007F7D42078400760D5E8690027C00057
:101BF00008D4E86940F08050E861E869012700F006
:101C0000805000905C480168C90513D40168834680
:101C100041F480710160FFF7AFFB824606E000BF30
:101C2000FFF7AAFBA0EB0A0064284ED8DBF80000FF
:101C3000C005F5D5E06801280AD008B1052813D001
:101C4000286A20F001002862286A20F0040002E0DF
:101C5000286A40F001002862E06841F2883B98B1B0
:101C6000FFF78AFB82460BE0286A40F004002862F6
:101C7000EEE700BFFFF780FBA0EB0A0159455AD8F9
:101C8000286A8007F6D50CE0FFF776FB824605E070
:101C9000FFF772FBA0EB0A0159454CD8286A800770
:101CA000F6D41FB1E86920F08050E861E06988B39C
:101CB0006968C1F38101022944D00228C6F8608016
:101CC00004D0FFF759FB044638E034E0FFF754FB3B
:101CD000074604E0FFF750FBC01B02282BD82868FA
:101CE0008001F7D4206AB0F5803F05D16868A1680B
:101CF00020F4003008436860D4E9080108436968AB
:101D000021F4741108436860C6F86090FFF734FB53
:101D1000044606E025E000BFFFF72EFB001B02286B
:101D200009D828688001F7D51BE000BFFFF724FB26
:101D3000001B022802D90320BDE8F88F2868800123
:101D4000F4D40EE00128F7D06868226A00F48031EC
:101D5000914204D1616A00F47010884201D00120E0
:101D6000EAE70020E8E700000010024000004242DD
:101D7000800442422C0000200070004070B5040036
:101D800009D0606A002540B125616561A56294F8BB
:101D9000510040B10CE0012070BD6068B0F5827F59
:101DA000F4D0E561F2E784F85050204600F040F8A6
:101DB000022084F851002068016821F04001016090
:101DC000A088218900F4827001F404410843A189AC
:101DD00001F400610843217C01F002010843217DE8
:101DE00001F001010843218B01F400710843217FB8
:101DF00001F03801084394F8201001F080010843F5
:101E0000218D01F40051084321680860A069042174
:101E100001EA1040216848602068C16921F400612E
:101E2000C1616565012084F85100002070BD00008B
:101E300030B585B0002400940194029403940068A6
:101E4000174988422AD11748816941F4805181613C
:101E5000816901F480510491816941F00801816137
:101E60008069114D00F008000490082000900220C5
:101E700001900320039069462846FFF783F910205C
:101E8000CDE90004694628460294FFF77BF907482C
:101E9000416841F0E06141F00101416005B030BDB1
:101EA0000030014000100240000C014000000140E1
:101EB0002DE9F84F044640680025984616460F461F
:101EC0004FF0040BB0F5827F01D1A06888B194F87F
:101ED0005000012818D0012084F85000FFF74CFA78
:101EE000814694F851004FF0000A01280ED00225D7
:101EF00082E084F851B013460A462046CDF80080AF
:101F000000F083F8BDE8F88F0220FBE7002F72D0C5
:101F1000002E70D084F851B0C4F854A0A763A687EF
:101F2000E687C4F830A0A4F834A0A4F836A0C4F81A
:101F300040A0C4F844A0A068B0F5004F09D12068C3
:101F4000016821F0400101602068016821F48041AE
:101F5000016020680168490603D4016841F040012E
:101F60000160E068D8B139E020688168C90709D00C
:101F7000007BA16B0870A06B401CA063E08F401E2B
:101F8000E0870CE0FFF7F8F9A0EB0901414503D326
:101F9000B8F1FF3F03D036E0B8F1000F33D0E08F47
:101FA0000028E1D11DE020688168C90709D0C06818
:101FB000A16B0880A06B801CA063E08F401EE087AF
:101FC0000CE0FFF7D9F9A0EB0901414503D3B8F1C3
:101FD000FF3F03D017E0B8F1000F14D0E08F0028C6
:101FE000E1D14A464146204600F0FBFD08B12020E1
:101FF0006065606D00B10125012084F8510084F80E
:1020000050A028467EE70325F6E72DE9F84F044661
:1020100090F8500000270A9E1D4692468B464FF0CE
:10202000010901280ED0012084F85000FFF7A4F91F
:10203000804694F85100616801280CD0B1F5827F88
:1020400007D102E00220BDE8F88FA16809B9042891
:1020500001D00227C2E0BBF1000F27D0BAF1000F78
:1020600024D01DB394F85100042802D0052084F830
:10207000510000206065C4F838A0E587A587C4F842
:1020800030B0E586A5862064606420680168490652
:1020900003D4016841F040010160E068B0F5006FD1
:1020A000606805D0E8B3012D46D07FE0012795E0B8
:1020B00008B1012D39D1206B21680088C860206BE0
:1020C000801C2063E08E401EE0862EE02068816840
:1020D00089070FD5E18E69B1B9F1010F0AD1216BE2
:1020E0000988C160206B801C2063E08E401EE08662
:1020F0004FF0000920688168C9070CD0E18F51B109
:10210000C068A16B0880A06B801CA063E08F401E9C
:10211000E0874FF00109FFF72FF9A0EB0800B0426C
:1021200000E009E001D3701C50D1E08E0028CDD131
:10213000E08F0028CAD13FE0206B21680078087347
:10214000206B401C2063E08E401EE0862EE020685D
:10215000816889070FD5E18E69B1B9F1010F0AD104
:10216000216B09780173206B401C2063E08E401EB8
:10217000E0864FF0000920688168C9070CD0E18F24
:1021800051B1C068A16B0870A06B401CA063E08FC8
:10219000401EE0874FF00109FFF7EEF8A0EB0800C2
:1021A000B04202D3701C01D010E07EB1E08E002856
:1021B000CDD1E08F0028CAD142463146204600F0FA
:1021C0003EFD28B101272020606507E0032705E0D8
:1021D000A06818B92068C16880680090012084F860
:1021E0005100002084F8500038462CE710B5401EFE
:1021F000B0F1807F01D3012010BD4FF0E024606179
:102200000F21601700F0ECFE0020A0610720206184
:10221000002010BD70B590F83C20012A26D0012482
:1022200080F83C40022280F83D2003685A689D688F
:1022300022F070060A6832435A600D4B02689A42D7
:1022400008D0B2F1804F05D00A4B9A4202D00A4B17
:102250009A4204D1496825F080031943916080F8BF
:102260003D40002180F83C10084670BD022070BD42
:10227000002C0140000400400008004010B504009C
:1022800003D094F83D0010B107E0012010BD0020FC
:1022900084F83C00204600F01FF8022084F83D003E
:1022A000211D206800F06CFD012084F8460084F8B0
:1022B0003E0084F83F0084F8400084F8410084F830
:1022C000420084F8430084F8440084F8450084F810
:1022D0003D00002010BD000008B501680B48B1F1B9
:1022E000804F0BD00A4A914207D1C16941F00201E7
:1022F000C161C06900F00200009008BDC16941F0F1
:102300000101C161C06900F00100F5E70010024061
:102310000004004090F83D10012901D001207047D1
:10232000022180F83D1000680B49884208D0B0F1C6
:10233000804F05D00949884202D00949884204D11A
:10234000816801F00701062903D0016841F001010D
:102350000160002070470000002C01400004004094
:102360000008004070B5044690F83C00012817D0E2
:10237000012584F83C50022084F83D0020688268E2
:1023800022F0770222F47F4282600868502830D021
:102390000DDC20284DD005DC98B310283BD148E057
:1023A000022070BD302844D0402834D139E0602864
:1023B00028D0702806D0B0F5805F2CD0B0F5005F33
:1023C00029D10AE0CB68D1E90121206800F01BFD8A
:1023D0002068816841F0770109E0CB68D1E90121EB
:1023E000206800F010FD2068816841F48041816020
:1023F00011E0CA684968206800F0BAFD50212068E1
:1024000007E016E0CA684968206800F0C2FD602154
:10241000206800F002FD84F83D50002084F83C0064
:1024200070BDCA684968206800F0A2FD402120689C
:10243000EFE7226801461046EBE7000000B585B0E3
:102440000021009101910291039100680B4988429B
:1024500011D10B48816941F00401816180696946AD
:1024600000F004000490C02000900220019003902E
:102470000448FEF787FE05B000BD000000040040E0
:10248000001002400008014070B5044690F83C007E
:102490000D4601280AD0012084F83C0042B1042AEC
:1024A00018D0082A2AD00C2A4DD139E0022070BD5C
:1024B000206800F0BBFC2068816941F0080181615F
:1024C0002068816921F004018161206881692A699D
:1024D000114311E0206800F0D1FC2068816941F4CB
:1024E000006181612068816921F4806181612068D7
:1024F00081692A6941EA0221816124E0206800F0B3
:10250000E9FC2068C16941F00801C1612068C16926
:1025100021F00401C1612068C1692A69114311E0F9
:10252000206800F003FD2068C16941F40061C161C9
:102530002068C16921F48061C1612068C1692A698C
:1025400041EA0221C161002084F83C0070BD10B551
:10255000040003D094F83D0010B107E0012010BD45
:10256000002084F83C00204600F01EF8022084F889
:102570003D00211D206800F003FC012084F8460086
:1025800084F83E0084F83F0084F8400084F841005D
:1025900084F8420084F8430084F8440084F845003D
:1025A00084F83D00002010BD7047000010B50446BF
:1025B000022249B104290ED0082913D094F8410011
:1025C000012816D0012010BD94F83E000128F9D151
:1025D00084F83E200FE094F83F000128F2D184F8FF
:1025E0003F2008E094F840000128EBD184F8402017
:1025F00001E084F841200122206800F0F7FB0F4938
:102600002068884203D1426C42F400424264206850
:10261000884208D0B0F1804F05D00949884202D0E5
:102620000849884204D1816801F00701062903D0D6
:10263000016841F001010160002010BD002C014043
:102640000004004000080040FEE701684A69D243E8
:1026500052050FD46FF480624A61002140F8301FA8
:10266000202242738173026942F004020261017305
:102670000120704700207047F8B50446C06A1E4626
:102680000D461746082807D0012805D010F5803FD1
:1026900002D0206B122804D12068016841F48071B7
:1026A0000160134600224FF001112046009600F011
:1026B00057F840B120680068C00502D54FF400709B
:1026C00020640320F8BD2069B0F5804F0ED00620AD
:1026D000216800EAD51040F0F000086133463A4620
:1026E0000B49204600F070F878B902E005F0FE00D2
:1026F00000E0E8B221680861054933463A46891F7F
:10270000204600F061F80028DCD00120F8BD000070
:102710000800010070B516460D4604460DE020463F
:10272000FFF793FF08B1012070BD681C05D0FEF7CC
:1027300023FE801BA84207D835B120684069C043FA
:102740004007ECD4002070BD002044F8300F202159
:102750006173A073216941F0200121612073E2E7D8
:102760002DE9F0471E4690460D460446C1F3074743
:10277000DDF8209008E0701C06D0FEF7FDFDA0EB10
:102780000900B0420FD876B12068012F18D08069B7
:1027900025EA00000004000C14D000214145EAD0D5
:1027A0000020BDE8F087002044F8300F202161733D
:1027B000A073216941F02001216120730120F0E71D
:1027C0004069E5E70121E9E72DE9F0479A4691469E
:1027D0000E46044600254FF02008C1F3074725E0C8
:1027E00020684069C043400514D42068016841F462
:1027F0000071016021686FF480604861256384F88E
:102800003D8084F83E50206C40F00400206484F841
:102810003C501FE0B9F1FF3F08D0FEF7ADFDA0EB43
:102820000A0149450CD8B9F1000F09D02068012FE1
:1028300013D0806926EA00000004000C0BD0CFE71B
:1028400044F8305F84F80D80A573206940F02000C3
:10285000206125730120BDE8F0874069EAE770B583
:1028600016460D4604460DE02046FFF7EEFE08B181
:10287000012070BD681C05D0FEF77EFD801BA842BC
:1028800007D835B120684069C0430006ECD4002069
:1028900070BD002044F8300F20216173A0732169BE
:1028A00041F0200121612073E2E700002DE9F04FA3
:1028B00020488BB000F1100103AD1EC985E81E0051
:1028C000D0E90012CDE90812DFF86C901B4F00250B
:1028D0000DF1200A80464FF4704B01AE012259469B
:1028E0004C464846FEF743FD012000F0F5FF3AF85C
:1028F000151000222046FEF73AFDD8E90210CDE976
:1029000001100024384636F81410FEF72BFD58B19C
:10291000641CE4B2042CF5D36D1CEDB2042DDDD3A0
:1029200001200BB0BDE8F08F03A800EB8500005D2F
:10293000F7E7000008460008000C014000080140CD
:102940003EB500240D480094019402940A49846025
:10295000016001250573047505614FF46021446031
:10296000C161FEF79FF90320CDE900056946029495
:102970000248FEF793F83EBD0024014048000020C5
:102980002DE9F04385B000244A4800940194029454
:102990000394816941F010018161816901F01001A6
:1029A0000491816941F020018161816901F0200178
:1029B0000491816941F004018161816901F00401A0
:1029C0000491816941F00801816180693A4F00F00A
:1029D00008004FF400550490002229463846FEF7BF
:1029E000C6FCDFF8D890002248F230014846FEF7D6
:1029F000BEFCDFF8CC8000224FF203014046FEF718
:102A0000B6FC0095022601250396CDE901546946DE
:102A10003846FEF7B7FB072000902A48CDE90105AC
:102A200069464846FEF7AEFB30208DE861006946F6
:102A300048460396FEF7A6FB0320CDE90005CDE945
:102A4000024669464046FEF79DFB4FF470408DE814
:102A50006100694640460396FEF794FB4FF47060B0
:102A60008DE8310069464846FEF78CFB2803CDE926
:102A70000004694648460294FEF784FBE803CDE96A
:102A80000005CDE9024669464846FEF77BFB002279
:102A900011460720FEF75EFE0720FEF74DFE0022DE
:102AA00011460820FEF756FE0820FEF745FE05B049
:102AB000BDE8F08300100240001001400008014012
:102AC000000C0140000021100D480C494FF4007229
:102AD00001604FF4827141604FF480618160002198
:102AE000C1600161C0E905122822C0E907214162E5
:102AF00081620A21C162FFF741B900000030014044
:102B0000CC00002010B586B0002412480094019437
:102B10000294039404944FF080410594016048F6B8
:102B20009F41C0E9011440F2CF71C0E903148461F0
:102B3000FFF7A4FB4FF48050009069460548FFF76B
:102B400011FC049404A903480594FFF763FB06B045
:102B500010BD00002401002010B58EB000240794A1
:102B6000089409940A940B941C2168460C94FDF770
:102B7000F0FA1948174901604721C0E9011463219F
:102B8000C0E903148461FFF779FB4FF4805007908C
:102B900007A91148FFF7E6FB0F48FFF7D8FC0B9495
:102BA0000BA90D480C94FFF735FB6020CDE900041C
:102BB00002940022694608480494FFF765FC042249
:102BC00069460548FFF760FC0348FFF737FC0EB085
:102BD00010BD0000000400406C010020FEE77047BB
:102BE0007047F8B5044640684FF48273984217D195
:102BF000A0684FF48065B0F5004F01D0A8420FD116
:102C00002068066826F0400606606068984207D192
:102C1000A068A84204D100920B460022012103E0E3
:102C200000920B4600228021204600F019F800286F
:102C300004D0606D40F0200060650320F8BD38B519
:102C40000B46009204460022802100F009F800287B
:102C500004D0606D40F020006065032038BD0000A6
:102C60002DE9F8431E46914688460446089DFEF726
:102C700083FB401B351AFEF77FFB0746254800689B
:102C8000C0F3CB30684338E0701C37D0FEF774FBDC
:102C9000C01BA84203D215B1009860B32CE0206895
:102CA000416821F0E00141606068B0F5827F0BD19E
:102CB000A068B0F5004F02D0B0F5806F04D1206855
:102CC000016821F040010160A06AB0F5005F09D100
:102CD0002068016821F4005101602068016841F416
:102CE00000510160012084F85100002084F8500058
:102CF0000320BDE8F8830025401E0090206881680D
:102D000038EA010004D000214945BDD10020F0E798
:102D10000121F9E72C0000207047FEF7B5BC30B563
:102D200093B028216846FDF714FA14210AA8FDF78C
:102D300010FA002401200F941094119401041294AD
:102D40008DE8130004904FF4E010CDE9081002253F
:102D500007956846FEF782FE0F20CDE90A05680256
:102D6000CDE90C4002210AA80E94FEF79BFDA803B2
:102D700011900F950FA8FEF71FFD13B030BD7047DF
:102D8000F0B50268164B174C174D4FF0804798422C
:102D900005D0B84203D0A04201D0A84203D122F00E
:102DA00070064A683243984205D0B84203D0A04228
:102DB00001D0A84203D122F44074CA6822434C696E
:102DC00022F08002224302608A68C2620A6882623C
:102DD000984201D10969016301214161F0BD000000
:102DE000002C0140000400400008004010B501F034
:102DF0001F030121046A99408C430462016A9A40CE
:102E00001143016210BD10B5846842EA032224F424
:102E10007F440A432243826010BD826822F0700220
:102E20000A4342F0070181607047000030B5026A32
:102E300022F001020262026A4368846924F0730589
:102E40000C682C4322F002058A682A430A4DA842E6
:102E50000BD122F00805CA6823F440732A434D6958
:102E600022F004021D438B692B434360846149684F
:102E70004163026230BD0000002C014030B5026A9F
:102E800022F010020262026A436884690D6824F429
:102E9000E64444EA05248D6822F0200242EA051245
:102EA0000B4DA8420ED1CD6822F0800242EA0512F5
:102EB0004D6923F4406343EA85038D6922F04002A3
:102EC00043EA85034360846149688163026230BDDF
:102ED000002C014030B5026A22F480720262036A5B
:102EE0004268C46923F4007324F073050C682C4312
:102EF0008D6843EA05230C4DA8420ED1CD6823F41A
:102F0000006343EA05234D6922F4405242EA051268
:102F10008D6923F4806342EA05124260C461496806
:102F2000C163036230BD0000002C014030B5026A6D
:102F300022F480520262046A4268C3690D6823F475
:102F4000E64343EA05238D6824F4005444EA05343B
:102F5000064DA84204D14D6922F4804242EA85120E
:102F60004260C36149680164046230BD002C0140C5
:102F700010B5036A046A24F001040462846924F031
:102F8000F00444EA021423F00A020A438461026254
:102F900010BD10B5036A23F0100303628369046A4D
:102FA00023F4704343EA023224F0A00343EA011100
:102FB0008261016210BDFEE70FB4084B10B504A991
:102FC00002AA039800F0DEF8044602A9002000F0EF
:102FD00070FC204610BC5DF814FB0000B3380008FC
:102FE0000907090E002804DB00F1E02080F8001436
:102FF000704700F00F0000F1E02080F8141D7047CA
:1030000002E008C8121F08C1002AFAD170477047B1
:10301000002001E001C1121F002AFBD1704700000F
:103020002DE9FF5FDDE90220010DDDF838B0024334
:1030300018D044F61050A1F2FF3141430D140F98FF
:10304000012820D0A5EB0B00401C5FEA000A4FF0DE
:103050000004474EDFF81C91A046504616D5CAF131
:10306000000728E00F98012443A2012808D000217E
:1030700000980F9BC0E90021C0E90243BDE8FF9F13
:103080006FEA0B01F4E7CBF10000DEE7074612E040
:10309000F80707D02246334640464946FDF72DFA49
:1030A000804689462246334610461946FDF725FAE2
:1030B00004460E467F10002FEAD1DDE90201BAF185
:1030C000000F42464B4602DAFDF717FA01E0FDF722
:1030D00086FA04460E460022284BFDF707FB03D86C
:1030E0004FF0FF30014607E00022254B20463146D5
:1030F000FDF75CF9FDF7E2FA102409E0002C0ADB89
:103100000A220023FDF7EAF8019B30321A55641EAB
:1031100050EA0102F2D1641C019AC4F11103144473
:103120000F9A012A03D0012208430DD10AE0084377
:1031300004D000204FF0110B0F9080E7A3EB0B059C
:103140006D1E0DE05B4504DD4FF0000205F1010549
:1031500004E003DA4FF00002A5F10105002AECD0EB
:1031600000980F99C0E90231C0E9004586E70000E8
:10317000000024400000F03F300000000000F04359
:103180000000E03F2DE9FF4F95B09B46894606467B
:1031900000250FE2252877D100242746F84A01218F
:1031A000059400E0044316F8013F203B01FA03F0C8
:1031B0001042F7D130782A2811D06FF02F033078E1
:1031C000A0F13002092A16D8059A44F0020402EB55
:1031D000820203EB42021044761C0590EFE759F897
:1031E000042B0592002A03DA504244F4005405905F
:1031F00044F00204761C30782E2816D116F8010F00
:1032000044F004042A280DD06FF02F023078A0F18A
:103210003003092B09D807EB870302EB4303C718D8
:10322000761CF3E759F8047B761C30786C280FD0B5
:1032300006DC4C2817D068280DD06A2814D104E089
:10324000742810D07A280FD10DE044F400140AE05D
:1032500044F4801401E044F440147278824202D1B4
:1032600004F58014761C761C307866280BD013DCAD
:10327000582877D009DC002875D04528F6D0462894
:10328000F4D047281AD19DE118E0632835D064288E
:1032900079D0652812D195E1702873D008DC6728B1
:1032A000F1D069286FD06E280DD06F2806D1B5E017
:1032B00073282CD0752875D0782874D05A46179961
:1032C00090476D1C75E1C4F30250022809D0032811
:1032D0000DD0D9F8001004280DD00D6009F10409B3
:1032E00067E1D9F80010EA17C1E90052F6E7D9F80A
:1032F00000100D80F2E70D70F0E719F8041B8DF84F
:10330000001000208DF80100EA46012003E059F882
:1033100004AB4FF0FF3061074FF0000102D40DE025
:1033200008F101018846B9420FDA8045F8DB1AF846
:1033300008100029F4D108E008F101018846814213
:10334000FADB1AF808100029F6D105985B46A0EBC5
:10335000080721463846179A00F094FA284400EBF3
:10336000080507E04DE029E10DE01AF8010B5A4687
:1033700017999047B8F10108F7D25B4621463846C5
:10338000179A13E142E00A220092C4F302524FF06E
:10339000000A022A08D059F804CB032A4FEAEC713C
:1033A0000AD00DE029E02AE009F1070121F0070227
:1033B000F2E802C1914609E00FFA8CFC4FEAEC7189
:1033C000042A03D14FFA8CFC4FEAEC71002907DA8A
:1033D0000A460021DCF1000C61EB02012D2202E023
:1033E000220504D52B228DF80420012203E0E207F8
:1033F00001D02022F7E7904659E00A2102E010228E
:103400000DE010214FF0000A00910BE010224FF068
:10341000000A44F004040827009203E008224FF059
:10342000000A0092C4F30252022A05D059F804CBD4
:103430000021032A08D009E009F1070121F0070261
:10344000F2E802C1914605E01FFA8CFC042A01D182
:103450000CF0FF0C4FF00008220728D5702806D08A
:10346000009B83F0100353EA0A0305D00EE04022CC
:103470008DF80420012208E05CEA010206D0302227
:103480008DF804208DF8050002229046009B83F001
:10349000080353EA0A030AD15CEA010201D1620778
:1034A00005D530228DF804204FF001087F1E5828E2
:1034B00004D034A003900EA802900DE036A0F9E7E6
:1034C00053466046009AFCF709FF84460398825CE5
:1034D0000298401E029002705CEA0100F0D102984E
:1034E00006A9081A00F1200A600702D524F48034E6
:1034F00000E00127574502DDA7EB0A0000E00020AD
:1035000000EB0A01009005984144401A0590E00341
:1035100006D45B462146179A059800F0B3F9054496
:10352000002706E001A85A46C05D179990476D1C18
:103530007F1C4745F6DBE0030CD55B462146179A16
:10354000059800F09FF9054404E030205A46179989
:1035500090476D1C0099481E00900029F5DC08E09A
:10356000029802995A460078491C0291179990478F
:103570006D1CBAF10001AAF1010AF1DC65E100005D
:103580000928010030313233343536373839616239
:1035900063646566000000003031323334353637FD
:1035A00038394142434445460000000000F058F9D4
:1035B0000544761C307800287FF4ECAD19B028461D
:1035C000BDE8F08F620700D4062709F1070222F058
:1035D000070CFCE80223E14603F000485FEA080C10
:1035E00002D00FF2702C0DE05FEA045C02D50FF2FE
:1035F000682C07E05FEAC47C02D00FF2602C01E087
:10360000AFF2700C4FF0FF3823F00043CDF850C0FC
:1036100065280CD006DC452809D046281DD047284F
:103620003DD13DE0662818D067287ED138E00021E2
:10363000112F01DB112000E0781CCDE9000106A963
:103640000EA8FFF7EDFCDDE90F010E9A03910021B2
:10365000009207F1010A04914DE04FF000400097FD
:10366000CDE9011006A90EA8FFF7DAFCDDE90F028B
:1036700003920E9B11990022DDF80CA00093049296
:1036800011B9791C00EB010AB7EB0A0004D4C0F1B0
:10369000FF3007F1010A0490AAEB0700019044E013
:1036A000012F00DA01270021112F01DD112000E098
:1036B0003846CDE9000106A90EA8FFF7B1FCDDE907
:1036C0000F010E9A0391002104910092BA4621073E
:1036D0000CD40399514500DA8A46BAF1010F05DD91
:1036E000009AAAF10101515C302908D0B84202DAEF
:1036F00010F1040F06DA0121CDE9011015E0AAF15D
:103700000101E9E7002805DC049901440491AAEBD2
:10371000000102E0411C514500DD8A460499401A2F
:10372000401C01904FF000400290200704D4019803
:10373000504501DBCDF8048000208DF84F00029841
:103740000DF14F07B0F1004F25D02B200E900298BD
:103750004FF0020800280CDA404202902D200E9013
:1037600007E00A210298FCF7A3FD3031029007F828
:10377000011DB8F10001A8F10108F2DC029800284F
:10378000EFD1791E0E980870307800F0200040F0DC
:10379000450007F8020D12A8C01B00F10708149895
:1037A000007800B1012000EB0A01019801EBE07103
:1037B00005984144401A401E0590E00306D45B463C
:1037C0002146179A059800F05DF805441498007892
:1037D00018B15A46179990476D1CE00324D55B46F3
:1037E0002146179A059800F04DF805441CE004980E
:1037F000002807DBDDE90301884203DD0098405C17
:10380000179901E0179930205A469047049805F11E
:103810000105401C04900198401E019004D12E2007
:103820005A46179990476D1CBAF10001AAF1010A96
:10383000DDDC05E017F8010B5A46179990476D1C1F
:10384000B8F10001A8F10108F4DC5B462146179AA3
:103850000598ABE62D0000002B00000020000000C2
:103860002DE9F041044600251E461746880404D47D
:1038700005E039462020B0476D1C641EF9D5284666
:10388000BDE8F0812DE9F041044600251E46904632
:10389000C80301D5302700E02027880404D505E0BF
:1038A00041463846B0476D1C641EF9D52846BDE830
:1038B000F0810A68531C0B601070704710B500F05F
:1038C00093F80020034920220A54401C1028FBDBF7
:1038D00010BD00003800002010B50446002303E0AE
:1038E00000F006F85B1C9BB2A342F9D310BD0000A8
:1038F00004480021026851620068416A1429FCD31F
:10390000704700002401002010B5002821D0114B81
:103910000022001F196803E0814203D80A46496863
:103920000029F9D152B11368841A9C4204D100686D
:1039300018441060104602E0506000E0186039B191
:1039400002680B1A934203D10B681A44026049685B
:10395000416010BD3000002010B5802000F050F80C
:103960000024202000F06CF8641C462CF9DB10BD0C
:1039700010B53220FDF7B2FB302000F041F80520F1
:10398000FDF7ACFB302000F03BF80120FDF7A6FB73
:10399000302000F035F80A20FDF7A0FB202000F0D1
:1039A0002FF80A20FDF79AFB282000F029F80120C3
:1039B000FDF794FB082000F023F80120FDF78EFBB3
:1039C000012000F01DF80120FDF788FB0120FDF724
:1039D00085FB062000F014F80120FDF77FFBBDE811
:1039E00010400C2000F00CB810B1012805D102E005
:1039F00041F0800101E041F0C001C8B2AFF30080A6
:103A00001CB500F0F00141F00C028DF8042041F0EB
:103A1000080100018DF8051040F00C018DF806102A
:103A200040F008008DF8070064200090042301AAEC
:103A30004E210248FDF764FD1CBD00007800002007
:103A40001CB500F0F00141F00D028DF8042041F0AA
:103A5000090100018DF8051040F00D018DF80610E8
:103A600040F009008DF8070064200090042301AAAB
:103A70004E210248FDF744FD1CBD000078000020E7
:103A800010B5044602E0641CFFF7DAFF2078002836
:103A9000F9D110BDFDF700FEFFF741F9FEF770FF09
:103AA00052485149002401605149C0E901144FF4C2
:103AB0008041C0E9034144618461C4610462FDF74F
:103AC00061FCFFF749F8FEF7FFFFFFF71BF8FEF771
:103AD00037FFFFF74DFF45483038FDF7C1F945493D
:103AE0006420086041480021F430FEF75FFD3F4844
:103AF0000421F430FEF75AFD3C48AC30FEF70AFCD6
:103B00003DA0FFF7BDFF3948F43001684C63006801
:103B100084633A4C002201212046FDF728FC002254
:103B200002212046FDF723FC354E364D00221021A0
:103B30003046FDF71CFC002220213046FDF717FC23
:103B400000F0C0F8FCF779FB0004000C04D0FA2860
:103B500002D0FCF76DFBA86109210120FFF7AEFE42
:103B6000A869FCF77EFB024620480B4626A1403898
:103B7000FFF722FA1D484038FFF782FF0021084670
:103B8000FFF732FF22A0FFF77BFF0120FFF7A4FE23
:103B9000FEF78CFE04460220FFF79EFE012CC5D0E6
:103BA00000210120FFF78AFE1DA0FFF769FF002119
:103BB0000120FFF783FE0D48A4F130021AA140381E
:103BC000FFF7FAF909484038FFF75AFF432C06D0AF
:103BD000442CABD1FFF7C0FE00F0EEF8A6E7FFF7EC
:103BE000BBFE00F09DFAA1E70054004078000020E1
:103BF000A08601003404004030000000000C0140A9
:103C000000080140000000204E3A252E31660000D9
:103C100072756E3A20447C57726974653A2043008D
:103C200020202020000000006B3A256400000000E6
:103C3000F0B50B30154D20F007010024144A0FE0B9
:103C400003688B420BD38B4205D95E1A4318476831
:103C5000C3E9006700E04368136002C004E0021D8E
:103C600010680028ECD12046002802D1286808B14D
:103C70000020F0BD064A07481060074A121A22F0D9
:103C80000702C0E9002401202860D7E734000020A3
:103C900030000020FC010020F803002000B5FFF7F1
:103CA00027FE03484169491C4161406900BD00008D
:103CB0000000002002494A69104448617047000032
:103CC000000000202DE9F84F4FF4005B0122594617
:103CD0003148FDF74CFBDFF8C480314D00264FF42E
:103CE00000474FF4FA796FF0010A00223946444642
:103CF0004046FDF73CFB6423022269462948FEF753
:103D0000D7F8012239462046FDF731FBBDF8000007
:103D1000C0F380016970C008FCF78AFA044648467F
:103D2000FDF7DCF951462046FCF776FA761CF6B230
:103D30000446022ED9D300210120FFF7BFFD204603
:103D4000FCF78FFA024617480B4617A19438FFF785
:103D500033F9174884421CDAE86921468046FCF7AB
:103D600055FA144EB04201DA012700E0002741461F
:103D70002046FCF74BFAB04201DA012000E00020B7
:103D8000074306D0002259460348EC61FDF7EFFADD
:103D90002046BDE8F88F00000010014000080140F7
:103DA00000000020CC0000204E3A252E3166000095
:103DB00000007A43000020412DE9FF5FB548FCF781
:103DC0000FFE84B2FFF7C8FD00210846FFF776FD1D
:103DD0002246B1A1B448FFF7EFF8B348FFF750FE11
:103DE0001420FFF779FD65002846FFF721FF834681
:103DF0002846FFF71DFF8246AC49AD4D2246584686
:103E0000FCF7B2FD224629465046FCF7ADFD0025E1
:103E100014E000210120FFF751FD3AF81500009051
:103E20003BF815302A46A3A19F48FFF7C5F89E48E6
:103E3000FFF726FE3220FFF74FFD6D1CA542E8DBA1
:103E4000FFF78AFD00210846FFF7CEFD9DA0FFF792
:103E500017FE1420FFF740FD9E4D01221021284639
:103E6000FDF785FA012220212846FDF780FA002679
:103E7000DFF86482F2E03220FFF72EFD00213BF8EC
:103E800016903AF816700846FFF718FDCDE9007451
:103E90004B46324691A18448FFF78EF88248FFF7DF
:103EA000EFFD4846FCF7C4F9454603900022012186
:103EB0002846FDF75CFA002202212846FDF757FA52
:103EC000FA20FDF70BF9FFF7FDFEFCF7B6F9000449
:103ED000000C04D0FA2802D0FCF7AAF90290642062
:103EE000FDF7FCF80A210120FFF7E8FC0298FCF737
:103EF000B8F9CDE900014A467CA16B48FFF75CF8B0
:103F00006948FFF7BDFDDDE90210FCF7C7F906D2ED
:103F1000012211462846FDF72AFA00220DE009F198
:103F20000300FCF785F90299FCF7AEF90ED20022E6
:103F300001212846FDF71BFA012202212846FDF740
:103F400016FA40F6B830FDF7C9F8AFE70A20FFF7D8
:103F5000C3FCA8461E20FFF7BFFC002201214546F6
:103F60004046FDF704FA002202212846FDF7FFF93A
:103F70004FF4FA70FDF7B2F80520FFF7ADFCFFF73C
:103F8000A1FEFCF75AF90004000C04D0FA2802D074
:103F9000FCF74EF902900120FFF79EFC0A21012058
:103FA000FFF78CFC0298FCF75CF9CDE900014A466A
:103FB0004EA13D48FFF700F83B48FFF761FD0021A7
:103FC0000120FFF77BFC0C20FFF774FEFFF766FE75
:103FD0000A21B0FBF1F53B462A4647A13248FEF7DD
:103FE000EBFF3148FFF74CFDBD422FD2DDE9021057
:103FF000FCF754F907D20122114645464046FDF729
:10400000B6F900220EE009F10500FCF711F902995A
:10401000FCF73AF99ED80022012145464046FDF7BB
:10402000A6F9012202212846FDF7A1F992E7002115
:104030000846FFF743FC32A11B48FEF7BDFF1A48B4
:10404000FFF71EFD0A20FFF747FC00E0314D2878FE
:104050000128ECD0A888012812D0761CA642FFF6D1
:104060000AAFFFF779FC00210846FFF7BDFC2AA044
:10407000FFF706FD6420FFF72FFC26480021416171
:104080005046FFF741FC04B05846BDE8F05FFFF72B
:104090003BBC000000EC0108736F206461206C756C
:1040A000753A2564000000003800002000F0010887
:1040B00000F8010825647C4E3A25642D543A2564A5
:1040C0007C000000646120646F63206475206C696B
:1040D0006575000000080140000C014025647C4E1D
:1040E0003A25642D543A25647C25640025643A25DC
:1040F0002E31660D0A000000543A25643A2564000A
:104100002A2A2A2A74616D2064756E672A2A2A2A4F
:104110000000000000000020786F6E6700000000C3
:104120002DE9F04F00254FF47A778BB02E463846B4
:10413000FCF7D4FF00210846FFF756FCF7A0FFF775
:104140009FFC0220FFF7C8FBFEF7B0FB04460021EE
:104150000846FFF749FCF3A0FFF792FC012C1ED0A4
:104160003A2C13D206EB860004EB4000303885B2BF
:1041700000212E460846FFF7A1FB2A46EBA1EE4898
:10418000FEF71AFFEC48FFF77BFC08E0452C02D055
:10419000432C08D003E000252E46FFF7DDFB0A2064
:1041A000FFF79AFBCDE7DFF89493681C4C46A9F81B
:1041B00010000A20FCF792FF208A4000FFF738FD2C
:1041C0000590208A4000FFF733FD0190FFF7C4FB04
:1041D00000210846FFF772FB2A46D9A1D648FEF710
:1041E000EBFED548FFF74CFC3846FCF777FF002084
:1041F00008900790FFF7B0FB00210846FFF7F4FB9B
:10420000D2A0FFF73DFC00210120FFF7EDFBD2A07B
:10421000FFF736FC4FF0000A54465746C820CDF849
:104220000CA0FFF759FBFFF797FB00210846FFF7AB
:10423000DBFBCDA0FFF724FC08210020FFF7D4FB17
:10424000CBA0FFF71DFCD046C3460220FFF744FB7E
:10425000FEF72CFB06460A20FFF73EFB012E28D076
:104260003A2E1DD207EB870006EB4000303884B2AF
:104270002746B8F1000F0CD005210120FFF71EFBE7
:104280002246B1A1AC48FEF797FEAB48FFF7F8FB1A
:104290000AE000210120FFF711FB2246B6A1F1E759
:1042A000452E0AD0462E13D0412E27D0422E6CD058
:1042B00026E00220FFF710FB27E000273C463946A6
:1042C0000120FFF791FBAEA0FFF7DAFBB84617E03D
:1042D000642C15D204210120FFF7F0FAABA0FFF700
:1042E000CFFBC4EB04104FF6FF7101EA80080027F2
:1042F0003C4639460120FFF777FB01E0089840B1C2
:104300000220FFF7E9FA432E78D00A20FFF7E4FAFB
:104310009BE70198002120F81A400846FFF7CEFAE3
:1043200097A0FFF7ADFB00210846FFF7C7FA0198F9
:10433000524697A130F81A307F48FEF73DFE7E487E
:10434000FFF79EFBA9F808B0AA4509D3002108464B
:10435000FFF74AFB90A0FFF793FB0120089003E0D2
:104360000AF1010000F0FF0A00273C460421012069
:10437000FFF73AFB8AA0FFF783FB00210120FFF73C
:1043800033FB89A0FFF77CFB52E00798002890D10F
:104390003C2C07D90C210120FFF790FA84A0FFF7ED
:1043A0006FFB52E7039A059908EB040021F812000D
:1043B00008210020FFF782FA71A0FFF761FB0821B6
:1043C0000020FFF77BFA039905980A4630F8113070
:1043D00067A15948FEF7F0FD5748FFF751FBA9F8D0
:1043E0000AB00398A8420AD308210020FFF7FCFA7C
:1043F00069A0FFF745FB0120079003E01CE0401C8B
:10440000C0B203904FF0000804210120FFF7ECFA3E
:1044100063A0FFF735FB00273C4639460120FFF734
:10442000E3FA61A0FFF72CFB00210120FFF7DCFA83
:104430000220FFF751FA3CE7FFF78EFA5EA0FFF784
:104440001FFB1420FFF748FAFFF786FA002421E04B
:1044500000210846FFF732FA0198224659A130F8A8
:1044600014303548FEF7A8FD3348FFF709FB032158
:104470000120FFF723FA059856A130F814202E48A2
:10448000FEF79AFD2C48FFF7FBFA3220FFF724FADB
:10449000641CE4B2AC42DBD951494C46B9F8100077
:1044A000FCF7D8FA6420FFF717FA4E494E4D228ADE
:1044B0000198FCF7A7FA6420FFF70EFA228A294632
:1044C0000598FCF79FFA6420FFF706FA00210846DA
:1044D000FFF7F4F9FFF740FA44A0FFF7D1FA3220D2
:1044E000FFF7FAF9A4F806B0FFF736FAFFF734FA47
:1044F00000210846FFF778FA3EA0FFF7C1FA6420D2
:10450000FFF7EAF90220E0810198FFF7FDF905982D
:104510000BB0BDE8F04FFFF7F7B900006368756BAB
:10452000790000006368756B793A00006368756B09
:10453000793A2564000000003800002000000020C7
:1045400064612063686F6E3A256400004E68696597
:104550007420446F3A20410054686F6920476961B4
:104560006E3A20420000000025642D4E25640000B4
:1045700025642D54256400004B3A2564000000009A
:1045800020202020202020200000000050000000DB
:1045900025642D4E256420002F2D2F2D2F00000087
:1045A00020202020202020004B3A20202020200006
:1045B000703C36300000000064616E67206C7575D9
:1045C0000000000025643A2074656D703A2025646F
:1045D0000000000074696D653A2025640000000049
:1045E00000EC010800F0010800F801086461206C8B
:1045F0007575000072756E3A2044207C20577269F0
:1046000074653A2043000000001000200040008044
:1046100000010002000400083134374532353830DB
:104620003336394641424344000000000000000098
:104630000102030406070809000000000102030448
:10464000604600080000002038000000003000082C
:104650009846000838000020C0070000103000080D
:10466000000000000000000000000000000000004A
:10467000000000000000000000000000000000003A
:104680000100000010000000000000000024F40001
:08469000000000000000000022
:04000005080000ED02
:00000001FF
